{
  "contractName": "GreenFoodToken",
  "abi": [
    {
      "inputs": [],
      "stateMutability": "nonpayable",
      "type": "constructor"
    },
    {
      "anonymous": false,
      "inputs": [
        {
          "indexed": true,
          "internalType": "address",
          "name": "owner",
          "type": "address"
        },
        {
          "indexed": true,
          "internalType": "address",
          "name": "approved",
          "type": "address"
        },
        {
          "indexed": true,
          "internalType": "uint256",
          "name": "tokenId",
          "type": "uint256"
        }
      ],
      "name": "Approval",
      "type": "event"
    },
    {
      "anonymous": false,
      "inputs": [
        {
          "indexed": true,
          "internalType": "address",
          "name": "owner",
          "type": "address"
        },
        {
          "indexed": true,
          "internalType": "address",
          "name": "operator",
          "type": "address"
        },
        {
          "indexed": false,
          "internalType": "bool",
          "name": "approved",
          "type": "bool"
        }
      ],
      "name": "ApprovalForAll",
      "type": "event"
    },
    {
      "anonymous": false,
      "inputs": [
        {
          "indexed": true,
          "internalType": "address",
          "name": "from",
          "type": "address"
        },
        {
          "indexed": true,
          "internalType": "address",
          "name": "to",
          "type": "address"
        },
        {
          "indexed": true,
          "internalType": "uint256",
          "name": "tokenId",
          "type": "uint256"
        }
      ],
      "name": "Transfer",
      "type": "event"
    },
    {
      "inputs": [
        {
          "internalType": "address",
          "name": "to",
          "type": "address"
        },
        {
          "internalType": "uint256",
          "name": "tokenId",
          "type": "uint256"
        }
      ],
      "name": "approve",
      "outputs": [],
      "stateMutability": "nonpayable",
      "type": "function"
    },
    {
      "inputs": [
        {
          "internalType": "address",
          "name": "owner",
          "type": "address"
        }
      ],
      "name": "balanceOf",
      "outputs": [
        {
          "internalType": "uint256",
          "name": "",
          "type": "uint256"
        }
      ],
      "stateMutability": "view",
      "type": "function",
      "constant": true
    },
    {
      "inputs": [
        {
          "internalType": "uint256",
          "name": "tokenId",
          "type": "uint256"
        }
      ],
      "name": "getApproved",
      "outputs": [
        {
          "internalType": "address",
          "name": "",
          "type": "address"
        }
      ],
      "stateMutability": "view",
      "type": "function",
      "constant": true
    },
    {
      "inputs": [
        {
          "internalType": "address",
          "name": "owner",
          "type": "address"
        },
        {
          "internalType": "address",
          "name": "operator",
          "type": "address"
        }
      ],
      "name": "isApprovedForAll",
      "outputs": [
        {
          "internalType": "bool",
          "name": "",
          "type": "bool"
        }
      ],
      "stateMutability": "view",
      "type": "function",
      "constant": true
    },
    {
      "inputs": [],
      "name": "name",
      "outputs": [
        {
          "internalType": "string",
          "name": "",
          "type": "string"
        }
      ],
      "stateMutability": "view",
      "type": "function",
      "constant": true
    },
    {
      "inputs": [
        {
          "internalType": "uint256",
          "name": "tokenId",
          "type": "uint256"
        }
      ],
      "name": "ownerOf",
      "outputs": [
        {
          "internalType": "address",
          "name": "",
          "type": "address"
        }
      ],
      "stateMutability": "view",
      "type": "function",
      "constant": true
    },
    {
      "inputs": [
        {
          "internalType": "address",
          "name": "from",
          "type": "address"
        },
        {
          "internalType": "address",
          "name": "to",
          "type": "address"
        },
        {
          "internalType": "uint256",
          "name": "tokenId",
          "type": "uint256"
        }
      ],
      "name": "safeTransferFrom",
      "outputs": [],
      "stateMutability": "nonpayable",
      "type": "function"
    },
    {
      "inputs": [
        {
          "internalType": "address",
          "name": "from",
          "type": "address"
        },
        {
          "internalType": "address",
          "name": "to",
          "type": "address"
        },
        {
          "internalType": "uint256",
          "name": "tokenId",
          "type": "uint256"
        },
        {
          "internalType": "bytes",
          "name": "data",
          "type": "bytes"
        }
      ],
      "name": "safeTransferFrom",
      "outputs": [],
      "stateMutability": "nonpayable",
      "type": "function"
    },
    {
      "inputs": [
        {
          "internalType": "address",
          "name": "operator",
          "type": "address"
        },
        {
          "internalType": "bool",
          "name": "approved",
          "type": "bool"
        }
      ],
      "name": "setApprovalForAll",
      "outputs": [],
      "stateMutability": "nonpayable",
      "type": "function"
    },
    {
      "inputs": [
        {
          "internalType": "bytes4",
          "name": "interfaceId",
          "type": "bytes4"
        }
      ],
      "name": "supportsInterface",
      "outputs": [
        {
          "internalType": "bool",
          "name": "",
          "type": "bool"
        }
      ],
      "stateMutability": "view",
      "type": "function",
      "constant": true
    },
    {
      "inputs": [],
      "name": "symbol",
      "outputs": [
        {
          "internalType": "string",
          "name": "",
          "type": "string"
        }
      ],
      "stateMutability": "view",
      "type": "function",
      "constant": true
    },
    {
      "inputs": [
        {
          "internalType": "uint256",
          "name": "tokenId",
          "type": "uint256"
        }
      ],
      "name": "tokenURI",
      "outputs": [
        {
          "internalType": "string",
          "name": "",
          "type": "string"
        }
      ],
      "stateMutability": "view",
      "type": "function",
      "constant": true
    },
    {
      "inputs": [
        {
          "internalType": "address",
          "name": "from",
          "type": "address"
        },
        {
          "internalType": "address",
          "name": "to",
          "type": "address"
        },
        {
          "internalType": "uint256",
          "name": "tokenId",
          "type": "uint256"
        }
      ],
      "name": "transferFrom",
      "outputs": [],
      "stateMutability": "nonpayable",
      "type": "function"
    },
    {
      "inputs": [
        {
          "internalType": "address",
          "name": "supplier",
          "type": "address"
        },
        {
          "internalType": "string",
          "name": "tokenURI",
          "type": "string"
        }
      ],
      "name": "createItem",
      "outputs": [
        {
          "internalType": "uint256",
          "name": "",
          "type": "uint256"
        }
      ],
      "stateMutability": "nonpayable",
      "type": "function"
    }
  ],
  "bytecode": "0x60806040523480156200001157600080fd5b506040518060400160405280600e81526020017f477265656e466f6f64546f6b656e0000000000000000000000000000000000008152506040518060400160405280600381526020017f474654000000000000000000000000000000000000000000000000000000000081525081600090816200008f919062000324565b508060019081620000a1919062000324565b5050506200040b565b600081519050919050565b7f4e487b7100000000000000000000000000000000000000000000000000000000600052604160045260246000fd5b7f4e487b7100000000000000000000000000000000000000000000000000000000600052602260045260246000fd5b600060028204905060018216806200012c57607f821691505b602082108103620001425762000141620000e4565b5b50919050565b60008190508160005260206000209050919050565b60006020601f8301049050919050565b600082821b905092915050565b600060088302620001ac7fffffffffffffffffffffffffffffffffffffffffffffffffffffffffffffffff826200016d565b620001b886836200016d565b95508019841693508086168417925050509392505050565b6000819050919050565b6000819050919050565b600062000205620001ff620001f984620001d0565b620001da565b620001d0565b9050919050565b6000819050919050565b6200022183620001e4565b6200023962000230826200020c565b8484546200017a565b825550505050565b600090565b6200025062000241565b6200025d81848462000216565b505050565b5b8181101562000285576200027960008262000246565b60018101905062000263565b5050565b601f821115620002d4576200029e8162000148565b620002a9846200015d565b81016020851015620002b9578190505b620002d1620002c8856200015d565b83018262000262565b50505b505050565b600082821c905092915050565b6000620002f960001984600802620002d9565b1980831691505092915050565b6000620003148383620002e6565b9150826002028217905092915050565b6200032f82620000aa565b67ffffffffffffffff8111156200034b576200034a620000b5565b5b62000357825462000113565b6200036482828562000289565b600060209050601f8311600181146200039c576000841562000387578287015190505b62000393858262000306565b86555062000403565b601f198416620003ac8662000148565b60005b82811015620003d657848901518255600182019150602085019450602081019050620003af565b86831015620003f65784890151620003f2601f891682620002e6565b8355505b6001600288020188555050505b505050505050565b612a36806200041b6000396000f3fe608060405234801561001057600080fd5b50600436106100ea5760003560e01c80636352211e1161008c578063a22cb46511610066578063a22cb4651461026f578063b88d4fde1461028b578063c87b56dd146102a7578063e985e9c5146102d7576100ea565b80636352211e146101f157806370a082311461022157806395d89b4114610251576100ea565b8063095ea7b3116100c8578063095ea7b31461016d57806323b872dd1461018957806326fb76c2146101a557806342842e0e146101d5576100ea565b806301ffc9a7146100ef57806306fdde031461011f578063081812fc1461013d575b600080fd5b610109600480360381019061010491906117b5565b610307565b60405161011691906117fd565b60405180910390f35b6101276103e9565b60405161013491906118a8565b60405180910390f35b61015760048036038101906101529190611900565b61047b565b604051610164919061196e565b60405180910390f35b610187600480360381019061018291906119b5565b6104c1565b005b6101a3600480360381019061019e91906119f5565b6105d8565b005b6101bf60048036038101906101ba9190611b7d565b610638565b6040516101cc9190611be8565b60405180910390f35b6101ef60048036038101906101ea91906119f5565b61066f565b005b61020b60048036038101906102069190611900565b61068f565b604051610218919061196e565b60405180910390f35b61023b60048036038101906102369190611c03565b610740565b6040516102489190611be8565b60405180910390f35b6102596107f7565b60405161026691906118a8565b60405180910390f35b61028960048036038101906102849190611c5c565b610889565b005b6102a560048036038101906102a09190611d3d565b61089f565b005b6102c160048036038101906102bc9190611900565b610901565b6040516102ce91906118a8565b60405180910390f35b6102f160048036038101906102ec9190611dc0565b610a13565b6040516102fe91906117fd565b60405180910390f35b60007f80ac58cd000000000000000000000000000000000000000000000000000000007bffffffffffffffffffffffffffffffffffffffffffffffffffffffff1916827bffffffffffffffffffffffffffffffffffffffffffffffffffffffff191614806103d257507f5b5e139f000000000000000000000000000000000000000000000000000000007bffffffffffffffffffffffffffffffffffffffffffffffffffffffff1916827bffffffffffffffffffffffffffffffffffffffffffffffffffffffff1916145b806103e257506103e182610aa7565b5b9050919050565b6060600080546103f890611e2f565b80601f016020809104026020016040519081016040528092919081815260200182805461042490611e2f565b80156104715780601f1061044657610100808354040283529160200191610471565b820191906000526020600020905b81548152906001019060200180831161045457829003601f168201915b5050505050905090565b600061048682610b11565b6004600083815260200190815260200160002060009054906101000a900473ffffffffffffffffffffffffffffffffffffffff169050919050565b60006104cc8261068f565b90508073ffffffffffffffffffffffffffffffffffffffff168373ffffffffffffffffffffffffffffffffffffffff160361053c576040517f08c379a000000000000000000000000000000000000000000000000000000000815260040161053390611ed2565b60405180910390fd5b8073ffffffffffffffffffffffffffffffffffffffff1661055b610b5c565b73ffffffffffffffffffffffffffffffffffffffff16148061058a575061058981610584610b5c565b610a13565b5b6105c9576040517f08c379a00000000000000000000000000000000000000000000000000000000081526004016105c090611f64565b60405180910390fd5b6105d38383610b64565b505050565b6105e96105e3610b5c565b82610c1d565b610628576040517f08c379a000000000000000000000000000000000000000000000000000000000815260040161061f90611ff6565b60405180910390fd5b610633838383610cb2565b505050565b6000806106456007610f18565b90506106518482610f26565b61065b81846110ff565b610665600761116c565b8091505092915050565b61068a8383836040518060200160405280600081525061089f565b505050565b6000806002600084815260200190815260200160002060009054906101000a900473ffffffffffffffffffffffffffffffffffffffff169050600073ffffffffffffffffffffffffffffffffffffffff168173ffffffffffffffffffffffffffffffffffffffff1603610737576040517f08c379a000000000000000000000000000000000000000000000000000000000815260040161072e90612062565b60405180910390fd5b80915050919050565b60008073ffffffffffffffffffffffffffffffffffffffff168273ffffffffffffffffffffffffffffffffffffffff16036107b0576040517f08c379a00000000000000000000000000000000000000000000000000000000081526004016107a7906120f4565b60405180910390fd5b600360008373ffffffffffffffffffffffffffffffffffffffff1673ffffffffffffffffffffffffffffffffffffffff168152602001908152602001600020549050919050565b60606001805461080690611e2f565b80601f016020809104026020016040519081016040528092919081815260200182805461083290611e2f565b801561087f5780601f106108545761010080835404028352916020019161087f565b820191906000526020600020905b81548152906001019060200180831161086257829003601f168201915b5050505050905090565b61089b610894610b5c565b8383611182565b5050565b6108b06108aa610b5c565b83610c1d565b6108ef576040517f08c379a00000000000000000000000000000000000000000000000000000000081526004016108e690611ff6565b60405180910390fd5b6108fb848484846112ee565b50505050565b606061090c82610b11565b600060066000848152602001908152602001600020805461092c90611e2f565b80601f016020809104026020016040519081016040528092919081815260200182805461095890611e2f565b80156109a55780601f1061097a576101008083540402835291602001916109a5565b820191906000526020600020905b81548152906001019060200180831161098857829003601f168201915b5050505050905060006109b661134a565b905060008151036109cb578192505050610a0e565b600082511115610a005780826040516020016109e8929190612150565b60405160208183030381529060405292505050610a0e565b610a0984611361565b925050505b919050565b6000600560008473ffffffffffffffffffffffffffffffffffffffff1673ffffffffffffffffffffffffffffffffffffffff16815260200190815260200160002060008373ffffffffffffffffffffffffffffffffffffffff1673ffffffffffffffffffffffffffffffffffffffff16815260200190815260200160002060009054906101000a900460ff16905092915050565b60007f01ffc9a7000000000000000000000000000000000000000000000000000000007bffffffffffffffffffffffffffffffffffffffffffffffffffffffff1916827bffffffffffffffffffffffffffffffffffffffffffffffffffffffff1916149050919050565b610b1a816113c9565b610b59576040517f08c379a0000000000000000000000000000000000000000000000000000000008152600401610b5090612062565b60405180910390fd5b50565b600033905090565b816004600083815260200190815260200160002060006101000a81548173ffffffffffffffffffffffffffffffffffffffff021916908373ffffffffffffffffffffffffffffffffffffffff160217905550808273ffffffffffffffffffffffffffffffffffffffff16610bd78361068f565b73ffffffffffffffffffffffffffffffffffffffff167f8c5be1e5ebec7d5bd14f71427d1e84f3dd0314c0f7b2291e5b200ac8c7c3b92560405160405180910390a45050565b600080610c298361068f565b90508073ffffffffffffffffffffffffffffffffffffffff168473ffffffffffffffffffffffffffffffffffffffff161480610c6b5750610c6a8185610a13565b5b80610ca957508373ffffffffffffffffffffffffffffffffffffffff16610c918461047b565b73ffffffffffffffffffffffffffffffffffffffff16145b91505092915050565b8273ffffffffffffffffffffffffffffffffffffffff16610cd28261068f565b73ffffffffffffffffffffffffffffffffffffffff1614610d28576040517f08c379a0000000000000000000000000000000000000000000000000000000008152600401610d1f906121e6565b60405180910390fd5b600073ffffffffffffffffffffffffffffffffffffffff168273ffffffffffffffffffffffffffffffffffffffff1603610d97576040517f08c379a0000000000000000000000000000000000000000000000000000000008152600401610d8e90612278565b60405180910390fd5b610da2838383611435565b610dad600082610b64565b6001600360008573ffffffffffffffffffffffffffffffffffffffff1673ffffffffffffffffffffffffffffffffffffffff1681526020019081526020016000206000828254610dfd91906122c7565b925050819055506001600360008473ffffffffffffffffffffffffffffffffffffffff1673ffffffffffffffffffffffffffffffffffffffff1681526020019081526020016000206000828254610e5491906122fb565b92505081905550816002600083815260200190815260200160002060006101000a81548173ffffffffffffffffffffffffffffffffffffffff021916908373ffffffffffffffffffffffffffffffffffffffff160217905550808273ffffffffffffffffffffffffffffffffffffffff168473ffffffffffffffffffffffffffffffffffffffff167fddf252ad1be2c89b69c2b068fc378daa952ba7f163c4a11628f55a4df523b3ef60405160405180910390a4610f1383838361143a565b505050565b600081600001549050919050565b600073ffffffffffffffffffffffffffffffffffffffff168273ffffffffffffffffffffffffffffffffffffffff1603610f95576040517f08c379a0000000000000000000000000000000000000000000000000000000008152600401610f8c9061237b565b60405180910390fd5b610f9e816113c9565b15610fde576040517f08c379a0000000000000000000000000000000000000000000000000000000008152600401610fd5906123e7565b60405180910390fd5b610fea60008383611435565b6001600360008473ffffffffffffffffffffffffffffffffffffffff1673ffffffffffffffffffffffffffffffffffffffff168152602001908152602001600020600082825461103a91906122fb565b92505081905550816002600083815260200190815260200160002060006101000a81548173ffffffffffffffffffffffffffffffffffffffff021916908373ffffffffffffffffffffffffffffffffffffffff160217905550808273ffffffffffffffffffffffffffffffffffffffff16600073ffffffffffffffffffffffffffffffffffffffff167fddf252ad1be2c89b69c2b068fc378daa952ba7f163c4a11628f55a4df523b3ef60405160405180910390a46110fb6000838361143a565b5050565b611108826113c9565b611147576040517f08c379a000000000000000000000000000000000000000000000000000000000815260040161113e90612479565b60405180910390fd5b806006600084815260200190815260200160002090816111679190612645565b505050565b6001816000016000828254019250508190555050565b8173ffffffffffffffffffffffffffffffffffffffff168373ffffffffffffffffffffffffffffffffffffffff16036111f0576040517f08c379a00000000000000000000000000000000000000000000000000000000081526004016111e790612763565b60405180910390fd5b80600560008573ffffffffffffffffffffffffffffffffffffffff1673ffffffffffffffffffffffffffffffffffffffff16815260200190815260200160002060008473ffffffffffffffffffffffffffffffffffffffff1673ffffffffffffffffffffffffffffffffffffffff16815260200190815260200160002060006101000a81548160ff0219169083151502179055508173ffffffffffffffffffffffffffffffffffffffff168373ffffffffffffffffffffffffffffffffffffffff167f17307eab39ab6107e8899845ad3d59bd9653f200f220920489ca2b5937696c31836040516112e191906117fd565b60405180910390a3505050565b6112f9848484610cb2565b6113058484848461143f565b611344576040517f08c379a000000000000000000000000000000000000000000000000000000000815260040161133b906127f5565b60405180910390fd5b50505050565b606060405180602001604052806000815250905090565b606061136c82610b11565b600061137661134a565b9050600081511161139657604051806020016040528060008152506113c1565b806113a0846115c6565b6040516020016113b1929190612150565b6040516020818303038152906040525b915050919050565b60008073ffffffffffffffffffffffffffffffffffffffff166002600084815260200190815260200160002060009054906101000a900473ffffffffffffffffffffffffffffffffffffffff1673ffffffffffffffffffffffffffffffffffffffff1614159050919050565b505050565b505050565b60006114608473ffffffffffffffffffffffffffffffffffffffff16611726565b156115b9578373ffffffffffffffffffffffffffffffffffffffff1663150b7a02611489610b5c565b8786866040518563ffffffff1660e01b81526004016114ab949392919061286a565b6020604051808303816000875af19250505080156114e757506040513d601f19601f820116820180604052508101906114e491906128cb565b60015b611569573d8060008114611517576040519150601f19603f3d011682016040523d82523d6000602084013e61151c565b606091505b506000815103611561576040517f08c379a0000000000000000000000000000000000000000000000000000000008152600401611558906127f5565b60405180910390fd5b805181602001fd5b63150b7a0260e01b7bffffffffffffffffffffffffffffffffffffffffffffffffffffffff1916817bffffffffffffffffffffffffffffffffffffffffffffffffffffffff1916149150506115be565b600190505b949350505050565b60606000820361160d576040518060400160405280600181526020017f30000000000000000000000000000000000000000000000000000000000000008152509050611721565b600082905060005b6000821461163f578080611628906128f8565b915050600a82611638919061296f565b9150611615565b60008167ffffffffffffffff81111561165b5761165a611a52565b5b6040519080825280601f01601f19166020018201604052801561168d5781602001600182028036833780820191505090505b5090505b6000851461171a576001826116a691906122c7565b9150600a856116b591906129a0565b60306116c191906122fb565b60f81b8183815181106116d7576116d66129d1565b5b60200101907effffffffffffffffffffffffffffffffffffffffffffffffffffffffffffff1916908160001a905350600a85611713919061296f565b9450611691565b8093505050505b919050565b6000808273ffffffffffffffffffffffffffffffffffffffff163b119050919050565b6000604051905090565b600080fd5b600080fd5b60007fffffffff0000000000000000000000000000000000000000000000000000000082169050919050565b6117928161175d565b811461179d57600080fd5b50565b6000813590506117af81611789565b92915050565b6000602082840312156117cb576117ca611753565b5b60006117d9848285016117a0565b91505092915050565b60008115159050919050565b6117f7816117e2565b82525050565b600060208201905061181260008301846117ee565b92915050565b600081519050919050565b600082825260208201905092915050565b60005b83811015611852578082015181840152602081019050611837565b60008484015250505050565b6000601f19601f8301169050919050565b600061187a82611818565b6118848185611823565b9350611894818560208601611834565b61189d8161185e565b840191505092915050565b600060208201905081810360008301526118c2818461186f565b905092915050565b6000819050919050565b6118dd816118ca565b81146118e857600080fd5b50565b6000813590506118fa816118d4565b92915050565b60006020828403121561191657611915611753565b5b6000611924848285016118eb565b91505092915050565b600073ffffffffffffffffffffffffffffffffffffffff82169050919050565b60006119588261192d565b9050919050565b6119688161194d565b82525050565b6000602082019050611983600083018461195f565b92915050565b6119928161194d565b811461199d57600080fd5b50565b6000813590506119af81611989565b92915050565b600080604083850312156119cc576119cb611753565b5b60006119da858286016119a0565b92505060206119eb858286016118eb565b9150509250929050565b600080600060608486031215611a0e57611a0d611753565b5b6000611a1c868287016119a0565b9350506020611a2d868287016119a0565b9250506040611a3e868287016118eb565b9150509250925092565b600080fd5b600080fd5b7f4e487b7100000000000000000000000000000000000000000000000000000000600052604160045260246000fd5b611a8a8261185e565b810181811067ffffffffffffffff82111715611aa957611aa8611a52565b5b80604052505050565b6000611abc611749565b9050611ac88282611a81565b919050565b600067ffffffffffffffff821115611ae857611ae7611a52565b5b611af18261185e565b9050602081019050919050565b82818337600083830152505050565b6000611b20611b1b84611acd565b611ab2565b905082815260208101848484011115611b3c57611b3b611a4d565b5b611b47848285611afe565b509392505050565b600082601f830112611b6457611b63611a48565b5b8135611b74848260208601611b0d565b91505092915050565b60008060408385031215611b9457611b93611753565b5b6000611ba2858286016119a0565b925050602083013567ffffffffffffffff811115611bc357611bc2611758565b5b611bcf85828601611b4f565b9150509250929050565b611be2816118ca565b82525050565b6000602082019050611bfd6000830184611bd9565b92915050565b600060208284031215611c1957611c18611753565b5b6000611c27848285016119a0565b91505092915050565b611c39816117e2565b8114611c4457600080fd5b50565b600081359050611c5681611c30565b92915050565b60008060408385031215611c7357611c72611753565b5b6000611c81858286016119a0565b9250506020611c9285828601611c47565b9150509250929050565b600067ffffffffffffffff821115611cb757611cb6611a52565b5b611cc08261185e565b9050602081019050919050565b6000611ce0611cdb84611c9c565b611ab2565b905082815260208101848484011115611cfc57611cfb611a4d565b5b611d07848285611afe565b509392505050565b600082601f830112611d2457611d23611a48565b5b8135611d34848260208601611ccd565b91505092915050565b60008060008060808587031215611d5757611d56611753565b5b6000611d65878288016119a0565b9450506020611d76878288016119a0565b9350506040611d87878288016118eb565b925050606085013567ffffffffffffffff811115611da857611da7611758565b5b611db487828801611d0f565b91505092959194509250565b60008060408385031215611dd757611dd6611753565b5b6000611de5858286016119a0565b9250506020611df6858286016119a0565b9150509250929050565b7f4e487b7100000000000000000000000000000000000000000000000000000000600052602260045260246000fd5b60006002820490506001821680611e4757607f821691505b602082108103611e5a57611e59611e00565b5b50919050565b7f4552433732313a20617070726f76616c20746f2063757272656e74206f776e6560008201527f7200000000000000000000000000000000000000000000000000000000000000602082015250565b6000611ebc602183611823565b9150611ec782611e60565b604082019050919050565b60006020820190508181036000830152611eeb81611eaf565b9050919050565b7f4552433732313a20617070726f76652063616c6c6572206973206e6f7420746f60008201527f6b656e206f776e6572206e6f7220617070726f76656420666f7220616c6c0000602082015250565b6000611f4e603e83611823565b9150611f5982611ef2565b604082019050919050565b60006020820190508181036000830152611f7d81611f41565b9050919050565b7f4552433732313a2063616c6c6572206973206e6f7420746f6b656e206f776e6560008201527f72206e6f7220617070726f766564000000000000000000000000000000000000602082015250565b6000611fe0602e83611823565b9150611feb82611f84565b604082019050919050565b6000602082019050818103600083015261200f81611fd3565b9050919050565b7f4552433732313a20696e76616c696420746f6b656e2049440000000000000000600082015250565b600061204c601883611823565b915061205782612016565b602082019050919050565b6000602082019050818103600083015261207b8161203f565b9050919050565b7f4552433732313a2061646472657373207a65726f206973206e6f74206120766160008201527f6c6964206f776e65720000000000000000000000000000000000000000000000602082015250565b60006120de602983611823565b91506120e982612082565b604082019050919050565b6000602082019050818103600083015261210d816120d1565b9050919050565b600081905092915050565b600061212a82611818565b6121348185612114565b9350612144818560208601611834565b80840191505092915050565b600061215c828561211f565b9150612168828461211f565b91508190509392505050565b7f4552433732313a207472616e736665722066726f6d20696e636f72726563742060008201527f6f776e6572000000000000000000000000000000000000000000000000000000602082015250565b60006121d0602583611823565b91506121db82612174565b604082019050919050565b600060208201905081810360008301526121ff816121c3565b9050919050565b7f4552433732313a207472616e7366657220746f20746865207a65726f2061646460008201527f7265737300000000000000000000000000000000000000000000000000000000602082015250565b6000612262602483611823565b915061226d82612206565b604082019050919050565b6000602082019050818103600083015261229181612255565b9050919050565b7f4e487b7100000000000000000000000000000000000000000000000000000000600052601160045260246000fd5b60006122d2826118ca565b91506122dd836118ca565b92508282039050818111156122f5576122f4612298565b5b92915050565b6000612306826118ca565b9150612311836118ca565b925082820190508082111561232957612328612298565b5b92915050565b7f4552433732313a206d696e7420746f20746865207a65726f2061646472657373600082015250565b6000612365602083611823565b91506123708261232f565b602082019050919050565b6000602082019050818103600083015261239481612358565b9050919050565b7f4552433732313a20746f6b656e20616c7265616479206d696e74656400000000600082015250565b60006123d1601c83611823565b91506123dc8261239b565b602082019050919050565b60006020820190508181036000830152612400816123c4565b9050919050565b7f45524337323155524953746f726167653a2055524920736574206f66206e6f6e60008201527f6578697374656e7420746f6b656e000000000000000000000000000000000000602082015250565b6000612463602e83611823565b915061246e82612407565b604082019050919050565b6000602082019050818103600083015261249281612456565b9050919050565b60008190508160005260206000209050919050565b60006020601f8301049050919050565b600082821b905092915050565b6000600883026124fb7fffffffffffffffffffffffffffffffffffffffffffffffffffffffffffffffff826124be565b61250586836124be565b95508019841693508086168417925050509392505050565b6000819050919050565b600061254261253d612538846118ca565b61251d565b6118ca565b9050919050565b6000819050919050565b61255c83612527565b61257061256882612549565b8484546124cb565b825550505050565b600090565b612585612578565b612590818484612553565b505050565b5b818110156125b4576125a960008261257d565b600181019050612596565b5050565b601f8211156125f9576125ca81612499565b6125d3846124ae565b810160208510156125e2578190505b6125f66125ee856124ae565b830182612595565b50505b505050565b600082821c905092915050565b600061261c600019846008026125fe565b1980831691505092915050565b6000612635838361260b565b9150826002028217905092915050565b61264e82611818565b67ffffffffffffffff81111561266757612666611a52565b5b6126718254611e2f565b61267c8282856125b8565b600060209050601f8311600181146126af576000841561269d578287015190505b6126a78582612629565b86555061270f565b601f1984166126bd86612499565b60005b828110156126e5578489015182556001820191506020850194506020810190506126c0565b8683101561270257848901516126fe601f89168261260b565b8355505b6001600288020188555050505b505050505050565b7f4552433732313a20617070726f766520746f2063616c6c657200000000000000600082015250565b600061274d601983611823565b915061275882612717565b602082019050919050565b6000602082019050818103600083015261277c81612740565b9050919050565b7f4552433732313a207472616e7366657220746f206e6f6e20455243373231526560008201527f63656976657220696d706c656d656e7465720000000000000000000000000000602082015250565b60006127df603283611823565b91506127ea82612783565b604082019050919050565b6000602082019050818103600083015261280e816127d2565b9050919050565b600081519050919050565b600082825260208201905092915050565b600061283c82612815565b6128468185612820565b9350612856818560208601611834565b61285f8161185e565b840191505092915050565b600060808201905061287f600083018761195f565b61288c602083018661195f565b6128996040830185611bd9565b81810360608301526128ab8184612831565b905095945050505050565b6000815190506128c581611789565b92915050565b6000602082840312156128e1576128e0611753565b5b60006128ef848285016128b6565b91505092915050565b6000612903826118ca565b91507fffffffffffffffffffffffffffffffffffffffffffffffffffffffffffffffff820361293557612934612298565b5b600182019050919050565b7f4e487b7100000000000000000000000000000000000000000000000000000000600052601260045260246000fd5b600061297a826118ca565b9150612985836118ca565b92508261299557612994612940565b5b828204905092915050565b60006129ab826118ca565b91506129b6836118ca565b9250826129c6576129c5612940565b5b828206905092915050565b7f4e487b7100000000000000000000000000000000000000000000000000000000600052603260045260246000fdfea264697066735822122018eb7bb9efc1124a46a41d4894d2872a66848670455a0b58d3b27f433cf6fc0264736f6c63430008110033",
  "immutableReferences": {},
  "source": "// SPDX-License-Identifier: MIT\npragma solidity >=0.4.22 <0.9.0;\n\nimport \"@openzeppelin/contracts/token/ERC721/extensions/ERC721URIStorage.sol\";\nimport \"@openzeppelin/contracts/utils/Counters.sol\";\n\ncontract GreenFoodToken is ERC721URIStorage {\n    using Counters for Counters.Counter;\n    Counters.Counter private _tokenIds;\n\n    constructor() ERC721(\"GreenFoodToken\", \"GFT\") {}\n\n    function createItem(address supplier, string memory tokenURI)\n        public\n        returns (uint256)\n    {\n        uint256 newItemId = _tokenIds.current();\n        _mint(supplier, newItemId);\n        _setTokenURI(newItemId, tokenURI);\n\n        _tokenIds.increment();\n        return newItemId;\n    }\n}",
  "sourcePath": "/Users/aita/Dev/React/gft_demo/contracts/contracts/GreenFoodToken.sol",
  "compiler": {
    "name": "solc",
    "version": "0.8.17+commit.8df45f5f.Emscripten.clang"
  },
  "schemaVersion": "3.4.10",
  "updatedAt": "2022-11-04T05:31:51.532Z",
  "networkType": "ethereum",
  "devdoc": {
    "kind": "dev",
    "methods": {
      "approve(address,uint256)": {
        "details": "See {IERC721-approve}."
      },
      "balanceOf(address)": {
        "details": "See {IERC721-balanceOf}."
      },
      "getApproved(uint256)": {
        "details": "See {IERC721-getApproved}."
      },
      "isApprovedForAll(address,address)": {
        "details": "See {IERC721-isApprovedForAll}."
      },
      "name()": {
        "details": "See {IERC721Metadata-name}."
      },
      "ownerOf(uint256)": {
        "details": "See {IERC721-ownerOf}."
      },
      "safeTransferFrom(address,address,uint256)": {
        "details": "See {IERC721-safeTransferFrom}."
      },
      "safeTransferFrom(address,address,uint256,bytes)": {
        "details": "See {IERC721-safeTransferFrom}."
      },
      "setApprovalForAll(address,bool)": {
        "details": "See {IERC721-setApprovalForAll}."
      },
      "supportsInterface(bytes4)": {
        "details": "See {IERC165-supportsInterface}."
      },
      "symbol()": {
        "details": "See {IERC721Metadata-symbol}."
      },
      "tokenURI(uint256)": {
        "details": "See {IERC721Metadata-tokenURI}."
      },
      "transferFrom(address,address,uint256)": {
        "details": "See {IERC721-transferFrom}."
      }
    },
    "version": 1
  },
  "userdoc": {
    "kind": "user",
    "methods": {},
    "version": 1
  }
}